{
  "_format": "hh-sol-artifact-1",
  "contractName": "Collect",
  "sourceName": "contracts/Collect.sol",
  "abi": [
    {
      "inputs": [],
      "stateMutability": "payable",
      "type": "constructor"
    },
    {
      "anonymous": false,
      "inputs": [
        {
          "indexed": false,
          "internalType": "address",
          "name": "sender",
          "type": "address"
        },
        {
          "indexed": false,
          "internalType": "uint256[]",
          "name": "IDs",
          "type": "uint256[]"
        },
        {
          "indexed": false,
          "internalType": "uint256[]",
          "name": "shares",
          "type": "uint256[]"
        }
      ],
      "name": "CreationOfIndex",
      "type": "event"
    },
    {
      "anonymous": false,
      "inputs": [
        {
          "indexed": false,
          "internalType": "address",
          "name": "sender",
          "type": "address"
        },
        {
          "indexed": false,
          "internalType": "uint256[]",
          "name": "IDs",
          "type": "uint256[]"
        },
        {
          "components": [
            {
              "internalType": "string",
              "name": "ceramicStream",
              "type": "string"
            },
            {
              "internalType": "address",
              "name": "ownerAddress",
              "type": "address"
            },
            {
              "internalType": "bool",
              "name": "acceptAnonymous",
              "type": "bool"
            }
          ],
          "indexed": false,
          "internalType": "struct Collect.SioData[]",
          "name": "data",
          "type": "tuple[]"
        }
      ],
      "name": "SetIOs",
      "type": "event"
    },
    {
      "stateMutability": "payable",
      "type": "fallback"
    },
    {
      "inputs": [
        {
          "internalType": "uint256[]",
          "name": "IDs",
          "type": "uint256[]"
        },
        {
          "internalType": "uint256[]",
          "name": "shares",
          "type": "uint256[]"
        }
      ],
      "name": "createIndex",
      "outputs": [],
      "stateMutability": "nonpayable",
      "type": "function"
    },
    {
      "inputs": [
        {
          "internalType": "uint256",
          "name": "Id",
          "type": "uint256"
        }
      ],
      "name": "getSIO",
      "outputs": [
        {
          "components": [
            {
              "internalType": "string",
              "name": "ceramicStream",
              "type": "string"
            },
            {
              "internalType": "address",
              "name": "ownerAddress",
              "type": "address"
            },
            {
              "internalType": "bool",
              "name": "acceptAnonymous",
              "type": "bool"
            }
          ],
          "internalType": "struct Collect.SioData",
          "name": "",
          "type": "tuple"
        }
      ],
      "stateMutability": "view",
      "type": "function"
    },
    {
      "inputs": [
        {
          "internalType": "address",
          "name": "addr",
          "type": "address"
        }
      ],
      "name": "getUserIndexes",
      "outputs": [
        {
          "components": [
            {
              "internalType": "uint256[]",
              "name": "sios",
              "type": "uint256[]"
            },
            {
              "internalType": "uint256[]",
              "name": "shares",
              "type": "uint256[]"
            }
          ],
          "internalType": "struct Collect.Index[]",
          "name": "",
          "type": "tuple[]"
        }
      ],
      "stateMutability": "view",
      "type": "function"
    },
    {
      "inputs": [
        {
          "internalType": "uint256[]",
          "name": "IDs",
          "type": "uint256[]"
        },
        {
          "components": [
            {
              "internalType": "string",
              "name": "ceramicStream",
              "type": "string"
            },
            {
              "internalType": "address",
              "name": "ownerAddress",
              "type": "address"
            },
            {
              "internalType": "bool",
              "name": "acceptAnonymous",
              "type": "bool"
            }
          ],
          "internalType": "struct Collect.SioData[]",
          "name": "data",
          "type": "tuple[]"
        }
      ],
      "name": "setSIOs",
      "outputs": [],
      "stateMutability": "nonpayable",
      "type": "function"
    },
    {
      "stateMutability": "payable",
      "type": "receive"
    }
  ],
  "bytecode": "0x6080604052610ffb806100136000396000f3fe6080604052600436106100405760003560e01c806306f57c3d1461004957806340965cf8146100695780638dbf95d41461009f5780639160b882146100cc57005b3661004757005b005b34801561005557600080fd5b50610047610064366004610c1a565b6100ec565b34801561007557600080fd5b50610089610084366004610c7b565b610353565b6040516100969190610e9a565b60405180910390f35b3480156100ab57600080fd5b506100bf6100ba366004610a87565b610447565b6040516100969190610e16565b3480156100d857600080fd5b506100476100e7366004610aa8565b61056c565b600081518351146101525760405162461bcd60e51b815260206004820152602560248201527f53494f2049447320616e64207368617265206e6f74207468652073616d65206c6044820152640cadccee8d60db1b60648201526084015b60405180910390fd5b60005b83518110156102395760006001600160a01b031660008086848151811061018c57634e487b7160e01b600052603260045260246000fd5b6020908102919091018101518252810191909152604001600020600101546001600160a01b031614156101f25760405162461bcd60e51b815260206004820152600e60248201526d125b9d985b1a590814d253c8125160921b6044820152606401610149565b82818151811061021257634e487b7160e01b600052603260045260246000fd5b6020026020010151826102259190610f2b565b91508061023181610f7e565b915050610155565b5080612710146102a85760405162461bcd60e51b815260206004820152603460248201527f546865207265706172746974696f6e206f66207468652073686172657320697360448201527320646966666572656e74207468616e203130302560601b6064820152608401610149565b6040805180820182526020808201859052858252336000908152600180835293812080549485018155815281902082518051939485946002909102909201926102f692849290910190610919565b50602082810151805161030f9260018501920190610919565b5050507f8da756baaf3c032a9ba0888214ae56c1f758b1cd40a488bec746e2e216bdc66933858560405161034593929190610dd6565b60405180910390a150505050565b60408051606080820183528152600060208201819052918101919091526000828152602081905260409081902081516060810190925280548290829061039890610f43565b80601f01602080910402602001604051908101604052809291908181526020018280546103c490610f43565b80156104115780601f106103e657610100808354040283529160200191610411565b820191906000526020600020905b8154815290600101906020018083116103f457829003601f168201915b5050509183525050600191909101546001600160a01b0381166020830152600160a01b900460ff16151560409091015292915050565b6001600160a01b0381166000908152600160209081526040808320805482518185028101850190935280835260609492939192909184015b828210156105615783829060005260206000209060020201604051806040016040529081600082018054806020026020016040519081016040528092919081815260200182805480156104f157602002820191906000526020600020905b8154815260200190600101908083116104dd575b505050505081526020016001820180548060200260200160405190810160405280929190818152602001828054801561054957602002820191906000526020600020905b815481526020019060010190808311610535575b5050505050815250508152602001906001019061047f565b505050509050919050565b80518251146105d65760405162461bcd60e51b815260206004820152603060248201527f53494f2049447320616e642053494f206461746173206861766520746f20626560448201526f040e8d0ca40e6c2daca40d8cadccee8d60831b6064820152608401610149565b60005b82518110156108d95760006001600160a01b031660008085848151811061061057634e487b7160e01b600052603260045260246000fd5b6020908102919091018101518252810191909152604001600020600101546001600160a01b031614806106945750336001600160a01b031660008085848151811061066b57634e487b7160e01b600052603260045260246000fd5b6020908102919091018101518252810191909152604001600020600101546001600160a01b0316145b6106e05760405162461bcd60e51b815260206004820152601f60248201527f4e6f7420746865206f776e6572206f7220756e617661696c61626c65204944006044820152606401610149565b60006001600160a01b031682828151811061070b57634e487b7160e01b600052603260045260246000fd5b6020026020010151602001516001600160a01b0316141561076e5760405162461bcd60e51b815260206004820152601a60248201527f43616e2774207365742053494f206164647265737320746f20300000000000006044820152606401610149565b60408051606080820183528152600060208201819052918101919091528282815181106107ab57634e487b7160e01b600052603260045260246000fd5b602090810291909101015151815282518390839081106107db57634e487b7160e01b600052603260045260246000fd5b6020908102919091018101518101516001600160a01b031690820152825183908390811061081957634e487b7160e01b600052603260045260246000fd5b6020026020010151604001518160400190151590811515815250508060008086858151811061085857634e487b7160e01b600052603260045260246000fd5b60200260200101518152602001908152602001600020600082015181600001908051906020019061088a929190610964565b506020820151600190910180546040909301511515600160a01b026001600160a81b03199093166001600160a01b039092169190911791909117905550806108d181610f7e565b9150506105d9565b507f6991c888bebd741fc29ae2c5b05bca7e29f2ba177d152776d84c03d3753dfe6033838360405161090d93929190610d54565b60405180910390a15050565b828054828255906000526020600020908101928215610954579160200282015b82811115610954578251825591602001919060010190610939565b506109609291506109d7565b5090565b82805461097090610f43565b90600052602060002090601f0160209004810192826109925760008555610954565b82601f106109ab57805160ff1916838001178555610954565b828001600101855582156109545791820182811115610954578251825591602001919060010190610939565b5b8082111561096057600081556001016109d8565b80356001600160a01b0381168114610a0357600080fd5b919050565b600082601f830112610a18578081fd5b81356020610a2d610a2883610f07565b610ed6565b80838252828201915082860187848660051b8901011115610a4c578586fd5b855b85811015610a6a57813584529284019290840190600101610a4e565b5090979650505050505050565b80358015158114610a0357600080fd5b600060208284031215610a98578081fd5b610aa1826109ec565b9392505050565b60008060408385031215610aba578081fd5b67ffffffffffffffff8084351115610ad0578182fd5b610add8585358601610a08565b925060208085013582811115610af1578384fd5b8501601f81018713610b01578384fd5b610b0e610a288235610f07565b808235825283820191508383018985853560051b8601011115610b2f578687fd5b865b8435811015610c0a578682351115610b47578788fd5b81358501601f196060828e0382011215610b5f57898afd5b610b67610ead565b888301358a811115610b77578b8cfd5b8301603f81018f13610b87578b8cfd5b898101358b811115610b9b57610b9b610faf565b610bab8b85601f84011601610ed6565b93508084528f6040828401011115610bc1578c8dfd5b80604083018c86013783018a018c905250818152610be1604084016109ec565b89820152610bf160608401610a77565b6040820152865250509285019290850190600101610b31565b5096999098509650505050505050565b60008060408385031215610c2c578182fd5b823567ffffffffffffffff80821115610c43578384fd5b610c4f86838701610a08565b93506020850135915080821115610c64578283fd5b50610c7185828601610a08565b9150509250929050565b600060208284031215610c8c578081fd5b5035919050565b6000815180845260208085019450808401835b83811015610cc257815187529582019590820190600101610ca6565b509495945050505050565b60008151606084528051806060860152825b81811015610cfc5760208184018101516080888401015201610cdf565b81811115610d0d5783608083880101525b5060208401519150610d2a60208601836001600160a01b03169052565b60408401519150610d3f604086018315159052565b601f01601f1916939093016080019392505050565b6001600160a01b038416815260606020808301829052600091610d7990840186610c93565b8381036040850152845180825282820190600581901b83018401848801865b83811015610dc657601f19868403018552610db4838351610ccd565b94870194925090860190600101610d98565b50909a9950505050505050505050565b6001600160a01b0384168152606060208201819052600090610dfa90830185610c93565b8281036040840152610e0c8185610c93565b9695505050505050565b60006020808301818452808551808352604092508286019150828160051b870101848801865b83811015610e8c57888303603f1901855281518051878552610e6088860182610c93565b91890151858303868b0152919050610e788183610c93565b968901969450505090860190600101610e3c565b509098975050505050505050565b602081526000610aa16020830184610ccd565b6040516060810167ffffffffffffffff81118282101715610ed057610ed0610faf565b60405290565b604051601f8201601f1916810167ffffffffffffffff81118282101715610eff57610eff610faf565b604052919050565b600067ffffffffffffffff821115610f2157610f21610faf565b5060051b60200190565b60008219821115610f3e57610f3e610f99565b500190565b600181811c90821680610f5757607f821691505b60208210811415610f7857634e487b7160e01b600052602260045260246000fd5b50919050565b6000600019821415610f9257610f92610f99565b5060010190565b634e487b7160e01b600052601160045260246000fd5b634e487b7160e01b600052604160045260246000fdfea26469706673582212200c8b74e276ccedda5e2d31f40bdb1652ef8fc043df667d7b4aedfb54a51abc5764736f6c63430008040033",
  "linkReferences": {},
  "deployedLinkReferences": {}
}