{
  "_format": "hh-sol-artifact-1",
  "contractName": "Collect",
  "sourceName": "contracts/Collect.sol",
  "abi": [
    {
      "inputs": [],
      "stateMutability": "payable",
      "type": "constructor"
    },
    {
      "stateMutability": "payable",
      "type": "fallback"
    },
    {
      "inputs": [
        {
          "internalType": "uint256",
          "name": "Id",
          "type": "uint256"
        }
      ],
      "name": "getSIO",
      "outputs": [
        {
          "components": [
            {
              "internalType": "string",
              "name": "ceramicStream",
              "type": "string"
            },
            {
              "internalType": "address",
              "name": "ownerAddress",
              "type": "address"
            },
            {
              "internalType": "bool",
              "name": "acceptAnonymous",
              "type": "bool"
            }
          ],
          "internalType": "struct Collect.SioData",
          "name": "",
          "type": "tuple"
        }
      ],
      "stateMutability": "view",
      "type": "function"
    },
    {
      "inputs": [
        {
          "internalType": "uint256[]",
          "name": "IDs",
          "type": "uint256[]"
        },
        {
          "components": [
            {
              "internalType": "string",
              "name": "ceramicStream",
              "type": "string"
            },
            {
              "internalType": "address",
              "name": "ownerAddress",
              "type": "address"
            },
            {
              "internalType": "bool",
              "name": "acceptAnonymous",
              "type": "bool"
            }
          ],
          "internalType": "struct Collect.SioData[]",
          "name": "data",
          "type": "tuple[]"
        }
      ],
      "name": "setSIOs",
      "outputs": [],
      "stateMutability": "nonpayable",
      "type": "function"
    },
    {
      "stateMutability": "payable",
      "type": "receive"
    }
  ],
  "bytecode": "0x608060405261090e806100136000396000f3fe60806040526004361061002a5760003560e01c806340965cf8146100335780639160b8821461006957005b3661003157005b005b34801561003f57600080fd5b5061005361004e36600461074a565b610089565b6040516100609190610762565b60405180910390f35b34801561007557600080fd5b50610031610084366004610690565b61017d565b6040805160608082018352815260006020820181905291810191909152600082815260208190526040908190208151606081019092528054829082906100ce90610860565b80601f01602080910402602001604051908101604052809291908181526020018280546100fa90610860565b80156101475780601f1061011c57610100808354040283529160200191610147565b820191906000526020600020905b81548152906001019060200180831161012a57829003601f168201915b5050509183525050600191909101546001600160a01b0381166020830152600160a01b900460ff16151560409091015292915050565b60005b8251811080156101905750815181105b156104915760006001600160a01b03166000808584815181106101c357634e487b7160e01b600052603260045260246000fd5b6020908102919091018101518252810191909152604001600020600101546001600160a01b031614806102475750336001600160a01b031660008085848151811061021e57634e487b7160e01b600052603260045260246000fd5b6020908102919091018101518252810191909152604001600020600101546001600160a01b0316145b6102985760405162461bcd60e51b815260206004820152601f60248201527f4e6f7420746865206f776e6572206f7220756e617661696c61626c652049440060448201526064015b60405180910390fd5b60006001600160a01b03168282815181106102c357634e487b7160e01b600052603260045260246000fd5b6020026020010151602001516001600160a01b031614156103265760405162461bcd60e51b815260206004820152601a60248201527f43616e2774207365742053494f206164647265737320746f2030000000000000604482015260640161028f565b604080516060808201835281526000602082018190529181019190915282828151811061036357634e487b7160e01b600052603260045260246000fd5b6020908102919091010151518152825183908390811061039357634e487b7160e01b600052603260045260246000fd5b6020908102919091018101518101516001600160a01b03169082015282518390839081106103d157634e487b7160e01b600052603260045260246000fd5b6020026020010151604001518160400190151590811515815250508060008086858151811061041057634e487b7160e01b600052603260045260246000fd5b602002602001015181526020019081526020016000206000820151816000019080519060200190610442929190610496565b506020820151600190910180546040909301511515600160a01b026001600160a81b03199093166001600160a01b039092169190911791909117905550806104898161089b565b915050610180565b505050565b8280546104a290610860565b90600052602060002090601f0160209004810192826104c4576000855561050a565b82601f106104dd57805160ff191683800117855561050a565b8280016001018555821561050a579182015b8281111561050a5782518255916020019190600101906104ef565b5061051692915061051a565b5090565b5b80821115610516576000815560010161051b565b80356001600160a01b038116811461054657600080fd5b919050565b600082601f83011261055b578081fd5b8135602061057061056b8361083c565b61080b565b80838252828201915082860187848660051b890101111561058f578586fd5b855b8581101561067357813567ffffffffffffffff808211156105b0578889fd5b90890190601f196060838d03820112156105c857898afd5b6105d06107e2565b88840135838111156105e0578b8cfd5b8401603f81018e136105f0578b8cfd5b89810135604085821115610606576106066108c2565b6106168c86601f8501160161080b565b95508186528f8183850101111561062b578d8efd5b818184018d8801378d8c838801015285845261064881880161052f565b8c85015261065860608801610680565b90840152505087525050509284019290840190600101610591565b5090979650505050505050565b8035801515811461054657600080fd5b600080604083850312156106a2578182fd5b823567ffffffffffffffff808211156106b9578384fd5b818501915085601f8301126106cc578384fd5b813560206106dc61056b8361083c565b8083825282820191508286018a848660051b89010111156106fb578889fd5b8896505b8487101561071d5780358352600196909601959183019183016106ff565b5096505086013592505080821115610733578283fd5b506107408582860161054b565b9150509250929050565b60006020828403121561075b578081fd5b5035919050565b6000602080835283516060828501528051806080860152835b818110156107975782810184015186820160a00152830161077b565b818111156107a8578460a083880101525b50918501516001600160a01b038116604086015291604086015180151560608701529250601f01601f19169390930160a001949350505050565b6040516060810167ffffffffffffffff81118282101715610805576108056108c2565b60405290565b604051601f8201601f1916810167ffffffffffffffff81118282101715610834576108346108c2565b604052919050565b600067ffffffffffffffff821115610856576108566108c2565b5060051b60200190565b600181811c9082168061087457607f821691505b6020821081141561089557634e487b7160e01b600052602260045260246000fd5b50919050565b60006000198214156108bb57634e487b7160e01b81526011600452602481fd5b5060010190565b634e487b7160e01b600052604160045260246000fdfea264697066735822122024e2dab56c388127e988bb22578a6cd4fbeb815b6af362241f1fb8245cf07e9c64736f6c63430008040033",
  "linkReferences": {},
  "deployedLinkReferences": {}
}